{
  "abi": [
    {
      "type": "function",
      "name": "getClass",
      "inputs": [
        {
          "name": "_wallet",
          "type": "address",
          "internalType": "address"
        }
      ],
      "outputs": [
        {
          "name": "",
          "type": "bytes1",
          "internalType": "bytes1"
        }
      ],
      "stateMutability": "view"
    },
    {
      "type": "function",
      "name": "getMetadata",
      "inputs": [
        {
          "name": "_wallet",
          "type": "address",
          "internalType": "address"
        }
      ],
      "outputs": [
        {
          "name": "",
          "type": "tuple",
          "internalType": "struct Score.Metadata",
          "components": [
            {
              "name": "isAEnterprise",
              "type": "bytes1",
              "internalType": "bytes1"
            },
            {
              "name": "rank",
              "type": "bytes1",
              "internalType": "bytes1"
            },
            {
              "name": "role",
              "type": "bytes1",
              "internalType": "bytes1"
            },
            {
              "name": "hashCredencial",
              "type": "bytes32",
              "internalType": "bytes32"
            },
            {
              "name": "score",
              "type": "uint256",
              "internalType": "uint256"
            }
          ]
        }
      ],
      "stateMutability": "view"
    },
    {
      "type": "function",
      "name": "getRank",
      "inputs": [
        {
          "name": "_wallet",
          "type": "address",
          "internalType": "address"
        }
      ],
      "outputs": [
        {
          "name": "",
          "type": "bytes1",
          "internalType": "bytes1"
        }
      ],
      "stateMutability": "view"
    },
    {
      "type": "function",
      "name": "lockData",
      "inputs": [
        {
          "name": "_wallet",
          "type": "address",
          "internalType": "address"
        },
        {
          "name": "_isAEnterprise",
          "type": "bool",
          "internalType": "bool"
        },
        {
          "name": "_role",
          "type": "bytes1",
          "internalType": "bytes1"
        },
        {
          "name": "_hashCredencial",
          "type": "bytes32",
          "internalType": "bytes32"
        },
        {
          "name": "_skillScore",
          "type": "uint256",
          "internalType": "uint256"
        },
        {
          "name": "_activityScore",
          "type": "uint256",
          "internalType": "uint256"
        },
        {
          "name": "_identityScore",
          "type": "uint256",
          "internalType": "uint256"
        }
      ],
      "outputs": [
        {
          "name": "",
          "type": "tuple",
          "internalType": "struct Score.Metadata",
          "components": [
            {
              "name": "isAEnterprise",
              "type": "bytes1",
              "internalType": "bytes1"
            },
            {
              "name": "rank",
              "type": "bytes1",
              "internalType": "bytes1"
            },
            {
              "name": "role",
              "type": "bytes1",
              "internalType": "bytes1"
            },
            {
              "name": "hashCredencial",
              "type": "bytes32",
              "internalType": "bytes32"
            },
            {
              "name": "score",
              "type": "uint256",
              "internalType": "uint256"
            }
          ]
        }
      ],
      "stateMutability": "nonpayable"
    },
    {
      "type": "function",
      "name": "wallet",
      "inputs": [
        {
          "name": "",
          "type": "address",
          "internalType": "address"
        }
      ],
      "outputs": [
        {
          "name": "isAEnterprise",
          "type": "bytes1",
          "internalType": "bytes1"
        },
        {
          "name": "rank",
          "type": "bytes1",
          "internalType": "bytes1"
        },
        {
          "name": "role",
          "type": "bytes1",
          "internalType": "bytes1"
        },
        {
          "name": "hashCredencial",
          "type": "bytes32",
          "internalType": "bytes32"
        },
        {
          "name": "score",
          "type": "uint256",
          "internalType": "uint256"
        }
      ],
      "stateMutability": "view"
    }
  ],
  "bytecode": {
    "object": "0x608060405234801561001057600080fd5b50610747806100206000396000f3fe608060405234801561001057600080fd5b50600436106100575760003560e01c80630cd1bbe31461005c5780632a50c146146100ab578063548c0ef4146101a1578063a56cc439146101d3578063a7f36cf114610251575b600080fd5b61008d61006a366004610651565b6001600160a01b0316600090815260208190526040902054610100900460f81b90565b6040516001600160f81b031990911681526020015b60405180910390f35b6101566100b9366004610651565b6040805160a081018252600080825260208201819052918101829052606081018290526080810191909152506001600160a01b031660009081526020818152604091829020825160a08101845281546001600160f81b031960f882811b821684526101008304811b8216958401959095526201000090910490931b9092169282019290925260018201546060820152600290910154608082015290565b6040805182516001600160f81b03199081168252602080850151821690830152838301511691810191909152606080830151908201526080918201519181019190915260a0016100a2565b61008d6101af366004610651565b6001600160a01b031660009081526020819052604090205462010000900460f81b90565b6102176101e1366004610651565b60006020819052908152604090208054600182015460029092015460f882811b936101008404821b9362010000900490911b9185565b604080516001600160f81b03199687168152948616602086015292909416918301919091526060820152608081019190915260a0016100a2565b61015661025f36600461066c565b6040805160a08101825260008082526020820181905291810182905260608101829052608081018290529087610400576001600160f81b03198716600160f81b036102ab575083610335565b600160f91b6001600160f81b0319881614806102d45750600360f81b6001600160f81b03198816145b806102ec5750600160fa1b6001600160f81b03198816145b156102f8575082610335565b60405162461bcd60e51b815260206004820152600e60248201526d149bdb19481b9bdd08199bdd5b9960921b604482015260640160405180910390fd5b8260140361034b57610348600f826106ea565b90505b6040805160a081019091526000815260208101610369838a8a610570565b6001600160f81b03199081168252891660208083019190915260408083018a905260609283018590526001600160a01b038d16600090815280835281902084518154938601519286015160f890811c620100000262ff00001994821c6101000261ffff199096169290911c9190911793909317919091169190911781559082015160018201556080909101516002909101556104f4565b6040518060a00160405280600160f81b6001600160f81b0319168152602001600060f81b6001600160f81b0319168152602001600060f81b6001600160f81b03191681526020016000801b815260200160008152506000808b6001600160a01b03166001600160a01b0316815260200190815260200160002060008201518160000160006101000a81548160ff021916908360f81c021790555060208201518160000160016101000a81548160ff021916908360f81c021790555060408201518160000160026101000a81548160ff021916908360f81c021790555060608201518160010155608082015181600201559050505b50506001600160a01b03871660009081526020818152604091829020825160a08101845281546001600160f81b031960f882811b821684526101008304811b8216958401959095526201000090910490931b90921692820192909252600182015460608201526002909101546080820152979650505050505050565b6000836000036105855750600160fa1b61062e565b60016001600160f81b03198416600160f81b036105ee57604485101580156105aa5750805b156105bc5750600160f81b905061062e565b603385106105e157806105d357600360f81b6105d9565b600160f91b5b91505061062e565b50600360f81b905061062e565b606085101580156105fc5750805b1561060e5750600160f81b905061062e565b6056851061062557806105d357600360f81b6105d9565b50600360f81b90505b9392505050565b80356001600160a01b038116811461064c57600080fd5b919050565b60006020828403121561066357600080fd5b61062e82610635565b600080600080600080600060e0888a03121561068757600080fd5b61069088610635565b9650602088013580151581146106a557600080fd5b955060408801356001600160f81b0319811681146106c257600080fd5b969995985095966060810135965060808101359560a0820135955060c0909101359350915050565b8082018082111561070b57634e487b7160e01b600052601160045260246000fd5b9291505056fea2646970667358221220e22a020f169cf79bc52238bcfa0648fea2673711dd0f0d8ef4b132a9dc9da03964736f6c63430008180033",
    "linkReferences": {}
  },
  "methodIdentifiers": {
    "getClass(address)": "0cd1bbe3",
    "getMetadata(address)": "2a50c146",
    "getRank(address)": "548c0ef4",
    "lockData(address,bool,bytes1,bytes32,uint256,uint256,uint256)": "a7f36cf1",
    "wallet(address)": "a56cc439"
  },
  "id": 20
}